{
  "contractName": "Auction",
  "abi": [
    {
      "inputs": [
        {
          "internalType": "address",
          "name": "beneficiary",
          "type": "address"
        },
        {
          "internalType": "uint256",
          "name": "biddingTime",
          "type": "uint256"
        }
      ],
      "stateMutability": "nonpayable",
      "type": "constructor"
    },
    {
      "anonymous": false,
      "inputs": [
        {
          "indexed": false,
          "internalType": "address",
          "name": "bidder",
          "type": "address"
        },
        {
          "indexed": false,
          "internalType": "uint256",
          "name": "amount",
          "type": "uint256"
        }
      ],
      "name": "Bid",
      "type": "event"
    },
    {
      "anonymous": false,
      "inputs": [
        {
          "indexed": false,
          "internalType": "bool",
          "name": "b",
          "type": "bool"
        }
      ],
      "name": "EndAuction",
      "type": "event"
    },
    {
      "anonymous": false,
      "inputs": [
        {
          "indexed": false,
          "internalType": "address",
          "name": "p",
          "type": "address"
        },
        {
          "indexed": false,
          "internalType": "uint256",
          "name": "amount",
          "type": "uint256"
        }
      ],
      "name": "Send",
      "type": "event"
    },
    {
      "inputs": [],
      "name": "bid",
      "outputs": [],
      "stateMutability": "payable",
      "type": "function",
      "payable": true
    },
    {
      "inputs": [],
      "name": "withdraw",
      "outputs": [],
      "stateMutability": "nonpayable",
      "type": "function"
    },
    {
      "inputs": [],
      "name": "endAuction",
      "outputs": [],
      "stateMutability": "nonpayable",
      "type": "function"
    },
    {
      "inputs": [
        {
          "internalType": "address",
          "name": "p",
          "type": "address"
        }
      ],
      "name": "getBalance",
      "outputs": [
        {
          "internalType": "uint256",
          "name": "",
          "type": "uint256"
        }
      ],
      "stateMutability": "view",
      "type": "function",
      "constant": true
    }
  ],
  "bytecode": "0x60806040523480156200001157600080fd5b506040516200101e3803806200101e8339818101604052810190620000379190620002b7565b62000048816200007160201b60201c565b6200005982620000d460201b60201c565b620000696200017160201b60201c565b50506200038a565b6000429050600082826200008691906200032d565b905060405180604001604052808281526020016001151581525060076000820151816000015560208201518160010160006101000a81548160ff021916908315150217905550905050505050565b60405180604001604052808273ffffffffffffffffffffffffffffffffffffffff16815260200160011515815250600260008201518160000160006101000a81548173ffffffffffffffffffffffffffffffffffffffff021916908373ffffffffffffffffffffffffffffffffffffffff16021790555060208201518160000160146101000a81548160ff02191690831515021790555090505050565b600033905060405180604001604052808273ffffffffffffffffffffffffffffffffffffffff168152602001600115158152506000808201518160000160006101000a81548173ffffffffffffffffffffffffffffffffffffffff021916908373ffffffffffffffffffffffffffffffffffffffff16021790555060208201518160000160146101000a81548160ff02191690831515021790555090505050565b600080fd5b600073ffffffffffffffffffffffffffffffffffffffff82169050919050565b6000620002448262000217565b9050919050565b620002568162000237565b81146200026257600080fd5b50565b60008151905062000276816200024b565b92915050565b6000819050919050565b62000291816200027c565b81146200029d57600080fd5b50565b600081519050620002b18162000286565b92915050565b60008060408385031215620002d157620002d062000212565b5b6000620002e18582860162000265565b9250506020620002f485828601620002a0565b9150509250929050565b7f4e487b7100000000000000000000000000000000000000000000000000000000600052601160045260246000fd5b60006200033a826200027c565b915062000347836200027c565b9250827fffffffffffffffffffffffffffffffffffffffffffffffffffffffffffffffff038211156200037f576200037e620002fe565b5b828201905092915050565b610c84806200039a6000396000f3fe60806040526004361061003f5760003560e01c80631998aeef146100445780633ccfd60b1461004e578063f8b2cb4f14610065578063fe67a54b146100a2575b600080fd5b61004c6100b9565b005b34801561005a57600080fd5b50610063610110565b005b34801561007157600080fd5b5061008c60048036038101906100879190610a49565b610184565b6040516100999190610a8f565b60405180910390f35b3480156100ae57600080fd5b506100b761019b565b005b60006100c361020f565b905060001515811515141561010d576040517f08c379a000000000000000000000000000000000000000000000000000000000815260040161010490610b07565b60405180910390fd5b50565b600061011a6102ce565b90506000610126610398565b905060001515821515148015610140575060001515811515145b15610180576040517f08c379a000000000000000000000000000000000000000000000000000000000815260040161017790610b07565b60405180910390fd5b5050565b60008061019083610473565b905080915050919050565b60006101a561051d565b905060006101b1610670565b9050600015158215151480156101cb575060001515811515145b1561020b576040517f08c379a000000000000000000000000000000000000000000000000000000000815260040161020290610b07565b60405180910390fd5b5050565b6000804290506000600760000154905060006004600101549050600a60000160009054906101000a900460ff1615156000151514156102c35760003490506000339050828211801561026057508385105b156102c05761026f818361075e565b6102798183610820565b7fe684a55f31b79eca403df938249029212a5925ec6be8012e099b45bc1019e5d281836040516102aa929190610b36565b60405180910390a16001955050505050506102cb565b50505b600093505050505b90565b6000600a60000160009054906101000a900460ff161515600115151415610390576000600460000160009054906101000a900473ffffffffffffffffffffffffffffffffffffffff1690506000339050600061032982610473565b90508273ffffffffffffffffffffffffffffffffffffffff168273ffffffffffffffffffffffffffffffffffffffff16141580156103675750600081115b1561038c57610376828261088d565b61038082826108fa565b60019350505050610395565b5050505b600090505b90565b600080600460000160009054906101000a900473ffffffffffffffffffffffffffffffffffffffff16905060006004600101549050600a60000160009054906101000a900460ff161515600115151415610469573373ffffffffffffffffffffffffffffffffffffffff168273ffffffffffffffffffffffffffffffffffffffff16141561046857600061042b83610473565b90508181111561046657600082826104439190610b8e565b905061044f848261088d565b61045984826108fa565b6001945050505050610470565b505b5b6000925050505b90565b600080600360008473ffffffffffffffffffffffffffffffffffffffff1673ffffffffffffffffffffffffffffffffffffffff1681526020019081526020016000206000015490506000600960008573ffffffffffffffffffffffffffffffffffffffff1673ffffffffffffffffffffffffffffffffffffffff168152602001908152602001600020600001549050600082826105109190610b8e565b9050809350505050919050565b60008042905060003390506000600260000160009054906101000a900473ffffffffffffffffffffffffffffffffffffffff1690506000600760000154905060006004600101549050600a60000160009054906101000a900460ff161515600015151415610663576000800160009054906101000a900473ffffffffffffffffffffffffffffffffffffffff1673ffffffffffffffffffffffffffffffffffffffff168473ffffffffffffffffffffffffffffffffffffffff16141561066257818510610661578273ffffffffffffffffffffffffffffffffffffffff166108fc829081150290604051600060405180830381858888f19350505050507f30a3c50752f2552dcc2b93f5b96866280816a986c0c0408cb6778b9fa198288f838260405161064b929190610b36565b60405180910390a160019550505050505061066d565b5b5b6000955050505050505b90565b600080429050600033905060006007600001549050600a60000160009054906101000a900460ff161515600015151415610753576000800160009054906101000a900473ffffffffffffffffffffffffffffffffffffffff1673ffffffffffffffffffffffffffffffffffffffff168273ffffffffffffffffffffffffffffffffffffffff161415610752578083106107515761070d600161096d565b7f9ed049ea4fd90bb0d5300a2a7051005e77d929db0e97278833f943c381d85559600160405161073d9190610bdd565b60405180910390a16001935050505061075b565b5b5b600093505050505b90565b600060046001015490508082111561081b5760405180606001604052808473ffffffffffffffffffffffffffffffffffffffff16815260200183815260200160011515815250600460008201518160000160006101000a81548173ffffffffffffffffffffffffffffffffffffffff021916908373ffffffffffffffffffffffffffffffffffffffff1602179055506020820151816001015560408201518160020160006101000a81548160ff0219169083151502179055509050505b505050565b600081905061082f83826109de565b81600960008573ffffffffffffffffffffffffffffffffffffffff1673ffffffffffffffffffffffffffffffffffffffff16815260200190815260200160002060000160008282546108819190610bf8565b92505081905550505050565b600081905061089c83826109e2565b81600360008573ffffffffffffffffffffffffffffffffffffffff1673ffffffffffffffffffffffffffffffffffffffff16815260200190815260200160002060000160008282546108ee9190610bf8565b92505081905550505050565b8173ffffffffffffffffffffffffffffffffffffffff166108fc829081150290604051600060405180830381858888f19350505050507f30a3c50752f2552dcc2b93f5b96866280816a986c0c0408cb6778b9fa198288f8282604051610961929190610b36565b60405180910390a15050565b6001151581151514156109db57604051806040016040528060011515815260200160011515815250600a60008201518160000160006101000a81548160ff02191690831515021790555060208201518160000160016101000a81548160ff0219169083151502179055509050505b50565b5050565b5050565b600080fd5b600073ffffffffffffffffffffffffffffffffffffffff82169050919050565b6000610a16826109eb565b9050919050565b610a2681610a0b565b8114610a3157600080fd5b50565b600081359050610a4381610a1d565b92915050565b600060208284031215610a5f57610a5e6109e6565b5b6000610a6d84828501610a34565b91505092915050565b6000819050919050565b610a8981610a76565b82525050565b6000602082019050610aa46000830184610a80565b92915050565b600082825260208201905092915050565b7f52756c6520636f6e646974696f6e206661696c65640000000000000000000000600082015250565b6000610af1601583610aaa565b9150610afc82610abb565b602082019050919050565b60006020820190508181036000830152610b2081610ae4565b9050919050565b610b3081610a0b565b82525050565b6000604082019050610b4b6000830185610b27565b610b586020830184610a80565b9392505050565b7f4e487b7100000000000000000000000000000000000000000000000000000000600052601160045260246000fd5b6000610b9982610a76565b9150610ba483610a76565b925082821015610bb757610bb6610b5f565b5b828203905092915050565b60008115159050919050565b610bd781610bc2565b82525050565b6000602082019050610bf26000830184610bce565b92915050565b6000610c0382610a76565b9150610c0e83610a76565b9250827fffffffffffffffffffffffffffffffffffffffffffffffffffffffffffffffff03821115610c4357610c42610b5f565b5b82820190509291505056fea2646970667358221220e23b7c592a3ea73deca98565e3a30bdefab0aca70b135b206765801b4b8fb3c764736f6c634300080c0033",
  "immutableReferences": {},
  "source": "contract Auction {\n  struct OwnerTuple {\n    address p;\n    bool _valid;\n  }\n  struct WithdrawCountTuple {\n    uint c;\n    bool _valid;\n  }\n  struct BeneficiaryTuple {\n    address p;\n    bool _valid;\n  }\n  struct WithdrawTotalTuple {\n    uint n;\n    bool _valid;\n  }\n  struct HighestBidTuple {\n    address bidder;\n    uint amount;\n    bool _valid;\n  }\n  struct EndTimeTuple {\n    uint t;\n    bool _valid;\n  }\n  struct EndTuple {\n    bool b;\n    bool _valid;\n  }\n  struct BidTotalTuple {\n    uint n;\n    bool _valid;\n  }\n  OwnerTuple owner;\n  mapping(address=>WithdrawCountTuple) withdrawCount;\n  BeneficiaryTuple beneficiary;\n  mapping(address=>WithdrawTotalTuple) withdrawTotal;\n  HighestBidTuple highestBid;\n  EndTimeTuple endTime;\n  mapping(address=>BidTotalTuple) bidTotal;\n  EndTuple end;\n  event EndAuction(bool b);\n  event Send(address p,uint amount);\n  event Bid(address bidder,uint amount);\n  constructor(address beneficiary,uint biddingTime) public {\n    updateEndTimeOnInsertConstructor_r15(biddingTime);\n    updateBeneficiaryOnInsertConstructor_r11(beneficiary);\n    updateOwnerOnInsertConstructor_r9();\n  }\n  function bid() public  payable  {\n      bool r10 = updateBidOnInsertRecv_bid_r10();\n      if(r10==false) {\n        revert(\"Rule condition failed\");\n      }\n  }\n  function withdraw() public    {\n      bool r5 = updateWithdrawOnInsertRecv_withdraw_r5();\n      bool r2 = updateWithdrawOnInsertRecv_withdraw_r2();\n      if(r5==false && r2==false) {\n        revert(\"Rule condition failed\");\n      }\n  }\n  function endAuction() public    {\n      bool r3 = updateSendOnInsertRecv_endAuction_r3();\n      bool r13 = updateEndAuctionOnInsertRecv_endAuction_r13();\n      if(r3==false && r13==false) {\n        revert(\"Rule condition failed\");\n      }\n  }\n  function getBalance(address p) public view  returns (uint) {\n      uint n = balance(p);\n      return n;\n  }\n  function balance(address p) private view  returns (uint) {\n      uint w = withdrawTotal[p].n;\n      uint b = bidTotal[p].n;\n      uint n = b-w;\n      return n;\n  }\n  function updateHighestBidOnInsertBid_r1(address p,uint m) private    {\n      uint _max = highestBid.amount;\n      if(m>_max) {\n        highestBid = HighestBidTuple(p,m,true);\n      }\n  }\n  function updateBidOnInsertRecv_bid_r10() private   returns (bool) {\n      uint t1 = block.timestamp;\n      uint t2 = endTime.t;\n      uint m = highestBid.amount;\n      if(false==end.b) {\n        uint n = msg.value;\n        address p = msg.sender;\n        if(n>m && t1<t2) {\n          updateHighestBidOnInsertBid_r1(p,n);\n          updateBidTotalOnInsertBid_r12(p,n);\n          emit Bid(p,n);\n          return true;\n        }\n      }\n      return false;\n  }\n  function updateEndAuctionOnInsertRecv_endAuction_r13() private   returns (bool) {\n      uint t1 = block.timestamp;\n      address s = msg.sender;\n      uint t2 = endTime.t;\n      if(false==end.b) {\n        if(s==owner.p) {\n          if(t1>=t2) {\n            updateEndOnInsertEndAuction_r0(bool(true));\n            emit EndAuction(true);\n            return true;\n          }\n        }\n      }\n      return false;\n  }\n  function updateOwnerOnInsertConstructor_r9() private    {\n      address s = msg.sender;\n      owner = OwnerTuple(s,true);\n  }\n  function updateBalanceOnIncrementWithdrawTotal_r7(address p,int w) private    {\n      // Empty()\n  }\n  function updateSendOnInsertRecv_endAuction_r3() private   returns (bool) {\n      uint t1 = block.timestamp;\n      address s = msg.sender;\n      address p = beneficiary.p;\n      uint t2 = endTime.t;\n      uint n = highestBid.amount;\n      if(false==end.b) {\n        if(s==owner.p) {\n          if(t1>=t2) {\n            payable(p).send(n);\n            emit Send(p,n);\n            return true;\n          }\n        }\n      }\n      return false;\n  }\n  function updateBidTotalOnInsertBid_r12(address p,uint m) private    {\n      int delta0 = int(m);\n      updateBalanceOnIncrementBidTotal_r7(p,delta0);\n      bidTotal[p].n += m;\n  }\n  function updateWithdrawTotalOnInsertWithdraw_r4(address p,uint m) private    {\n      int delta0 = int(m);\n      updateBalanceOnIncrementWithdrawTotal_r7(p,delta0);\n      withdrawTotal[p].n += m;\n  }\n  function updateBeneficiaryOnInsertConstructor_r11(address p) private    {\n      beneficiary = BeneficiaryTuple(p,true);\n  }\n  function updateEndTimeOnInsertConstructor_r15(uint d) private    {\n      uint t = block.timestamp;\n      uint t2 = t+d;\n      endTime = EndTimeTuple(t2,true);\n  }\n  function updateSendOnInsertWithdraw_r8(address p,uint n) private    {\n      payable(p).send(n);\n      emit Send(p,n);\n  }\n  function updateEndOnInsertEndAuction_r0(bool p) private    {\n      if(p==true) {\n        end = EndTuple(true,true);\n      }\n  }\n  function updateBalanceOnIncrementBidTotal_r7(address p,int b) private    {\n      // Empty()\n  }\n  function updateWithdrawOnInsertRecv_withdraw_r5() private   returns (bool) {\n      if(true==end.b) {\n        address h = highestBid.bidder;\n        address p = msg.sender;\n        uint n = balance(p);\n        if(p!=h && n>0) {\n          updateWithdrawTotalOnInsertWithdraw_r4(p,n);\n          updateSendOnInsertWithdraw_r8(p,n);\n          return true;\n        }\n      }\n      return false;\n  }\n  function updateuintByint(uint x,int delta) private   returns (uint) {\n      int convertedX = int(x);\n      int value = convertedX+delta;\n      uint convertedValue = uint(value);\n      return convertedValue;\n  }\n  function updateWithdrawOnInsertRecv_withdraw_r2() private   returns (bool) {\n      address p = highestBid.bidder;\n      uint m = highestBid.amount;\n      if(true==end.b) {\n        if(p==msg.sender) {\n          uint n = balance(p);\n          if(n>m) {\n            uint s = n-m;\n            updateWithdrawTotalOnInsertWithdraw_r4(p,s);\n            updateSendOnInsertWithdraw_r8(p,s);\n            return true;\n          }\n        }\n      }\n      return false;\n  }\n}",
  "sourcePath": "/home/iy27/UPenn/declarative-smart-contracts/solidity/min/auction/auction1.sol",
  "compiler": {
    "name": "solc",
    "version": "0.8.12+commit.f00d7308.Emscripten.clang"
  },
  "schemaVersion": "3.4.16",
  "updatedAt": "2025-05-15T14:12:38.050Z",
  "networkType": "ethereum",
  "devdoc": {
    "kind": "dev",
    "methods": {},
    "version": 1
  },
  "userdoc": {
    "kind": "user",
    "methods": {},
    "version": 1
  }
}